:1000000035EF01F00000000000EF00F000000000FC
:0A0010000000000000000000F3D71C
:10001C00010E836E070E0B6E170E0C6E6A0E0D6EB4
:10002C000D2EFED70C2EFCD70B2EFAD70000836AB0
:02003C001200B0
:10003E00010E836E030E0B6E080E0C6E770E0D6E98
:10004E000D2EFED70C2EFCD70B2EFAD7836A12007C
:10005E00EFDF040E0B6E0C0E0C6E330E0D6E0D2EAE
:10006E00FED70C2EFCD70B2EFAD700000000CFDFE8
:10007E00040E0B6E0C0E0C6E330E0D6E0D2EFED787
:10008E000C2EFCD70B2EFAD700000000C0DF040E9A
:10009E000B6E0C0E0C6E330E0D6E0D2EFED70C2E3F
:1000AE00FCD70B2EFAD700000000B1DF040E0B6E4A
:1000BE000C0E0C6E330E0D6E0D2EFED70C2EFCD7C5
:0C00CE000B2EFAD700000000A2DF120089
:1000DA00A0DF040E0B6E0C0E0C6E330E0D6E0D2E81
:1000EA00FED70C2EFCD70B2EFAD70000000091DFAA
:1000FA00040E0B6E0C0E0C6E330E0D6E0D2EFED70B
:10010A000C2EFCD70B2EFAD70000000082DF040E5B
:10011A000B6E0C0E0C6E330E0D6E0D2EFED70C2EC2
:10012A00FCD70B2EFAD70000000073DF040E0B6E0B
:10013A000C0E0C6E330E0D6E0D2EFED70C2EFCD748
:0C014A000B2EFAD70000000064DF12004A
:10015600836A0A0E0B6E220E0C6EA10E0D6E0D2E0C
:0C016600FED70C2EFCD70B2EFAD712008F
:1001720065DF040E0B6E0C0E0C6E330E0D6E0D2E23
:10018200FED70C2EFCD70B2EFAD70000000056DF4C
:10019200040E0B6E0C0E0C6E330E0D6E0D2EFED772
:1001A2000C2EFCD70B2EFAD70000000036DF040E0F
:1001B2000B6E0C0E0C6E330E0D6E0D2EFED70C2E2A
:1001C200FCD70B2EFAD70000000027DF040E0B6EBF
:1001D2000C0E0C6E330E0D6E0D2EFED70C2EFCD7B0
:0C01E2000B2EFAD70000000018DF1200FE
:1001EE0016DF040E0B6E0C0E0C6E330E0D6E0D2EF6
:1001FE00FED70C2EFCD70B2EFAD70000000007DF1F
:10020E00040E0B6E0C0E0C6E330E0D6E0D2EFED7F5
:10021E000C2EFCD70B2EFAD700000000F8DE040ED1
:10022E000B6E0C0E0C6E330E0D6E0D2EFED70C2EAD
:10023E00FCD70B2EFAD700000000FADE040E0B6E70
:10024E000C0E0C6E330E0D6E0D2EFED70C2EFCD733
:0C025E000B2EFAD700000000EBDE1200AF
:10026A00030E936E956A81B080D0D3DE040E0B6EB6
:10027A000C0E0C6E330E0D6E0D2EFED70C2EFCD707
:10028A000B2EFAD700000000D5DE040E0B6E0C0E02
:10029A000C6E330E0D6E0D2EFED70C2EFCD70B2EC8
:1002AA00FAD700000000B5DE040E0B6E0C0E0C6EC1
:1002BA00330E0D6E0D2EFED70C2EFCD70B2EFAD751
:1002CA0000000000B7DE42DFA4DE040E0B6E0C0E47
:1002DA000C6E330E0D6E0D2EFED70C2EFCD70B2E88
:1002EA00FAD70000000095DE31DF93DE040E0B6EB4
:1002FA000C0E0C6E330E0D6E0D2EFED70C2EFCD787
:10030A000B2EFAD70000000095DE20DF93DE040EE4
:10031A000B6E0C0E0C6E330E0D6E0D2EFED70C2EC0
:10032A00FCD70B2EFAD70000000073DE040E0B6E0A
:10033A000C0E0C6E330E0D6E0D2EFED70C2EFCD746
:10034A000B2EFAD70000000064DE040E0B6E0C0EB2
:10035A000C6E330E0D6E0D2EFED70C2EFCD70B2E07
:10036A00FAD70000000055DE14D081B212D0FCDEAC
:10037A00EDDEAEDEEBDE6EDEE9DE34DFE7DE6ADE20
:10038A00E5DEA6DEE3DEA4DEE1DE2CDFDFDE2ADF49
:06039A00DDDE69D7FFD78C
:020000040030CA
:0D000100220F0EFF0181FF0FC00FE00F4026
:00000001FF
