:1000000033EF01F00000000000EF00F000000000FE
:0A0010000000000000000000F3D71C
:10001C00836A070E0B6E170E0C6E6A0E0D6E0D2E8C
:0E002C00FED70C2EFCD70B2EFAD700001200C8
:10003A00010E836E030E0B6E080E0C6E770E0D6E9C
:10004A000D2EFED70C2EFCD70B2EFAD7836A120080
:10005A00EFDF040E0B6E0C0E0C6E330E0D6E0D2EB2
:10006A00FED70C2EFCD70B2EFAD700000000D1DFEA
:10007A00040E0B6E0C0E0C6E330E0D6E0D2EFED78B
:10008A000C2EFCD70B2EFAD700000000C2DF040E9C
:10009A000B6E0C0E0C6E330E0D6E0D2EFED70C2E43
:1000AA00FCD70B2EFAD700000000B3DF040E0B6E4C
:1000BA000C0E0C6E330E0D6E0D2EFED70C2EFCD7C9
:0C00CA000B2EFAD700000000A4DF12008B
:1000D600A2DF040E0B6E0C0E0C6E330E0D6E0D2E83
:1000E600FED70C2EFCD70B2EFAD70000000093DFAC
:1000F600040E0B6E0C0E0C6E330E0D6E0D2EFED70F
:100106000C2EFCD70B2EFAD70000000084DF040E5D
:100116000B6E0C0E0C6E330E0D6E0D2EFED70C2EC6
:10012600FCD70B2EFAD70000000075DF040E0B6E0D
:100136000C0E0C6E330E0D6E0D2EFED70C2EFCD74C
:0C0146000B2EFAD70000000066DF12004C
:10015200836A0A0E0B6E220E0C6EA10E0D6E0D2E10
:0C016200FED70C2EFCD70B2EFAD7120093
:10016E0065DF040E0B6E0C0E0C6E330E0D6E0D2E27
:10017E00FED70C2EFCD70B2EFAD70000000056DF50
:10018E00040E0B6E0C0E0C6E330E0D6E0D2EFED776
:10019E000C2EFCD70B2EFAD70000000038DF040E11
:1001AE000B6E0C0E0C6E330E0D6E0D2EFED70C2E2E
:1001BE00FCD70B2EFAD70000000029DF040E0B6EC1
:1001CE000C0E0C6E330E0D6E0D2EFED70C2EFCD7B4
:0C01DE000B2EFAD7000000001ADF120000
:1001EA0018DF040E0B6E0C0E0C6E330E0D6E0D2EF8
:1001FA00FED70C2EFCD70B2EFAD70000000009DF21
:10020A00040E0B6E0C0E0C6E330E0D6E0D2EFED7F9
:10021A000C2EFCD70B2EFAD700000000FADE040ED3
:10022A000B6E0C0E0C6E330E0D6E0D2EFED70C2EB1
:10023A00FCD70B2EFAD700000000FADE040E0B6E74
:10024A000C0E0C6E330E0D6E0D2EFED70C2EFCD737
:0C025A000B2EFAD700000000EBDE1200B3
:10026600030E936E956A81B080D0D5DE040E0B6EB8
:100276000C0E0C6E330E0D6E0D2EFED70C2EFCD70B
:100286000B2EFAD700000000D5DE040E0B6E0C0E06
:100296000C6E330E0D6E0D2EFED70C2EFCD70B2ECC
:1002A600FAD700000000B7DE040E0B6E0C0E0C6EC3
:1002B600330E0D6E0D2EFED70C2EFCD70B2EFAD755
:1002C60000000000B7DE42DFA6DE040E0B6E0C0E49
:1002D6000C6E330E0D6E0D2EFED70C2EFCD70B2E8C
:1002E600FAD70000000097DE31DF95DE040E0B6EB4
:1002F6000C0E0C6E330E0D6E0D2EFED70C2EFCD78B
:100306000B2EFAD70000000095DE20DF93DE040EE8
:100316000B6E0C0E0C6E330E0D6E0D2EFED70C2EC4
:10032600FCD70B2EFAD70000000075DE040E0B6E0C
:100336000C0E0C6E330E0D6E0D2EFED70C2EFCD74A
:100346000B2EFAD70000000066DE040E0B6E0C0EB4
:100356000C6E330E0D6E0D2EFED70C2EFCD70B2E0B
:10036600FAD70000000057DE14D081B212D0FCDEAE
:10037600EDDEAEDEEBDE6EDEE9DE34DFE7DE6ADE24
:10038600E5DEA6DEE3DEA4DEE1DE2CDFDFDE2ADF4D
:06039600DDDE69D7FFD790
:020000040030CA
:0D000100220F0EFF0181FF0FC00FE00F4026
:00000001FF
