:1000000079EF01F00000000000EF00F000000000B8
:0A0010000000000000000000F3D71C
:10001C000F0E0C6E470E0D6E0D2EFED70C2EFCD750
:06002C00000000001200BC
:06003200000000001200B6
:0A003800210E0D6E0D2EFED71200F2
:100042003EBE02D0839E01D0838E3EBC02D0839CF2
:1000520001D0838C3EBA02D0839A01D0838A3EB803
:1000620002D0839801D0838825B002D0848401D045
:1000720084948482DDDF84923EB602D0839E01D0D6
:10008200838E3EB402D0839C01D0838C3EB202D0D8
:10009200839A01D0838A3EB002D0839801D08388AC
:1000A20025B002D0848401D084948482C1DF8492FA
:0C00B20025A002D0B2DF01D0BEDF12009A
:0C00BE0025903DC03EF0BEDF2580120002
:1000CA000FD0800E386E19D0C00E386E16D0940E2E
:1000DA00386E13D0D40E386E10D0800E386E0DD014
:1000EA003850010AEEE03850020AEEE03850030AAE
:1000FA00EEE03850040AEEE0F0D73904006E3850CA
:10010A00002600C038F000C03EF096DF25903C6A19
:10011A003C503A24E96E000E3B20EA6EEE520BE0A8
:10012A003C503A24E96E000E3B20EA6EEECF3DF0D9
:0A013A00C1DF3C2AEDD7258012003A
:10014400969296949598959A959C959E849284946B
:10015400839E839C839A83985FDF5EDF5DDF838A5F
:100164008388848264DF849257DF848260DF849290
:1001740053DF84825CDF84924FDF8398848257DF6D
:1001840084924ADF848253DF8492839A838E8482AA
:100194004EDF849241DF839E8388848248DF849289
:1001A4008398848244DF849237DF848240DF8492A0
:1001B400838884823CDF84922FDF8398848237DFB4
:1001C4008492838E838C838A8388848230DF8492B2
:0601D40023DF258012006C
:1001DA000900F5CFE6FF0006FBE10106F9E112008E
:1001EA00010E386E010E396E34C03AF035C03BF05C
:0401FA0067DF1200A9
:1001FE008190820E0C6EDD0E0D6E0D2EFED70C2E26
:10020E00FCD70000000083B203D0370E016E09D078
:10021E0083B403D0340E016E04D083B602D0310EF7
:10022E00016E8180820E0C6EDD0E0D6E0D2EFED7D0
:10023E000C2EFCD7000000008192820E0C6EDD0E9B
:10024E000D6E0D2EFED70C2EFCD70000000083B2D3
:10025E0003D0380E016E09D083B403D0350E016E73
:10026E0004D083B602D0320E016E8182820E0C6EE5
:10027E00DD0E0D6E0D2EFED70C2EFCD700000000ED
:10028E008194820E0C6EDD0E0D6E0D2EFED70C2E91
:10029E00FCD70000000083B203D0390E016E09D0E6
:1002AE0083B403D0360E016E04D083B602D0330E63
:1002BE00016E8184820E0C6EDD0E0D6E0D2EFED73C
:0E02CE000C2EFCD70000000001C000F0120052
:1002DC00020E386E3650060F396E34C03AF035C007
:0602EC003BF0EDDE120004
:1002F200FAEC01F0C26A060EC16E0F0E956EF80E90
:10030200936EFF0E816E1DDF820E0C6EDD0E0D6E82
:100312000D2EFED70C2EFCD700000000010E3E6E03
:100322008FDE820E0C6EDD0E0D6E0D2EFED70C2EA4
:10033200FCD7000000000C0E3E6E82DE820E0C6EB8
:10034200DD0E0D6E0D2EFED70C2EFCD70000000028
:100352002E6A2F6A800E2F18006E800E005C02E15A
:10036200040E2E5C0BE2260E2E24E16E000E2F20D0
:10037200E26E090EE66E2E4A2F2AECD7150E346E67
:10038200000E356E31DF306A316A800E3118006E30
:10039200800E005C02E1040E305C21E22A0E302461
:1003A200326E000E3120336E29DF32C0E1FF33C0DE
:1003B200E2FF00C0E6FF2A0E3024E96E000E312073
:1003C200EA6EEECF34F0000E356E000E356E30C0A0
:1003D20036F031C037F081DF304A312AD6D7CED756
:0203E200FFD743
:1003F40010EE15F0100E006E010E016EE40EF66E96
:0E040400030EF76E000EF86EEDEC00F0120025
:1003E40044696769746520612073656E68613A00C9
:020000040030CA
:0D000100220F0EFF0181FF0FC00FE00F4026
:00000001FF
