:10000000E9EF01F00000000000EF00F00000000048
:0A0010000000000000000000F3D71C
:10001C000F0E0C6E470E0D6E0D2EFED70C2EFCD750
:06002C00000000001200BC
:0A003200210E0D6E0D2EFED71200F8
:06003C00000000001200AC
:100042006DBE02D0839E01D0838E6DBC02D0839C94
:1000520001D0838C6DBA02D0839A01D0838A6DB8A5
:1000620002D0839801D083885AB002D0848401D010
:1000720084948482E2DF84926DB602D0839E01D0A2
:10008200838E6DB402D0839C01D0838C6DB202D07A
:10009200839A01D0838A6DB002D0839801D083887D
:1000A2005AB002D0848401D084948482C6DF8492C0
:0C00B2005AA002D0B2DF01D0BBDF120068
:0C00BE005A906CC06DF0BEDF5A8012003A
:1000CA000FD0800E676E19D0C00E676E16D0940ED0
:1000DA00676E13D0D40E676E10D0800E676E0DD087
:1000EA006750010AEEE06750020AEEE06750030A21
:1000FA00EEE06750040AEEE0F0D76804006E67503D
:10010A00002600C067F000C06DF096DF5A906B6A57
:10011A006B506924E96E000E6A20EA6EEE520BE01B
:10012A006B506924E96E000E6A20EA6EEECF6CF01D
:0A013A00C1DF6B2AEDD75A801200D6
:10014400F00E816E030E0B6E8A0E0C6E550E0D6E44
:100154000D2EFED70C2EFCD70B2EFAD70000000074
:10016400816A030E0B6E8A0E0C6E550E0D6E0D2EEB
:10017400FED70C2EFCD70B2EFAD70000000012007D
:10018400969296949598959A959C959E849284942B
:10019400839E839C839A83983FDF3EDF3DDF838A7F
:1001A4008388848249DF849237DF848245DF8492A6
:1001B40033DF848241DF84922FDF839884823CDFA3
:1001C40084922ADF848238DF8492839A838E8482A5
:1001D40033DF849221DF839E838884822DDF84929F
:1001E4008398848229DF849217DF848225DF8492B6
:1001F4008388848221DF84920FDF839884821CDFCA
:100204008492838E838C838A8388848215DF84928C
:0602140003DF5A80120016
:10021A000900F5CFE6FF0006FBE10106F9E112004D
:10022A00010E676E010E686E62C069F063C06AF003
:04023A0047DF120088
:10023E0062C0E9FF63C0EAFFEE5210E062C0E9FF60
:10024E0063C0EAFF64C0D9FF65C0DAFFEE50DE1866
:10025E0005E1624A632A644A652AEAD762C0E9FF69
:10026E0063C0EAFF64C0D9FF65C0DAFFDE50EE5C02
:0A027E00006E016A000E015A120022
:100288008190820E0C6EDD0E0D6E0D2EFED70C2E9B
:10029800FCD70000000083B203D0370E646E0BD089
:1002A80083B403D0340E646E06D083B603D0310E07
:1002B800646E01D0646A8180820E0C6EDD0E0D6E54
:1002C8000D2EFED70C2EFCD7000000008192820E66
:1002D8000C6EDD0E0D6E0D2EFED70C2EFCD7000019
:1002E80000006450000A05E183B003D0300E646E4C
:1002F80017D06450000A05E183B203D0380E646E4B
:100308000FD06450000A05E183B403D0350E646E43
:1003180007D06450000A04E183B602D0320E646E3E
:100328008182820E0C6EDD0E0D6E0D2EFED70C2E08
:10033800FCD7000000008194820E0C6EDD0E0D6E5D
:100348000D2EFED70C2EFCD7000000006450000ACA
:1003580005E183B203D0390E646E0FD06450000AF1
:1003680005E183B403D0360E646E07D06450000AEA
:1003780004E183B602D0330E646E8184820E0C6E63
:10038800DD0E0D6E0D2EFED70C2EFCD700000000E2
:100398006450000A18E064C065F0666A020E676E71
:1003A8006250010F686E650E696E000E6A6E89DE16
:1003B800550E6224E16E000E6320E26E64C0E6FF13
:0A03C800010E006E01D0006A120061
:1003D200CEEC02F0390E5D6E390E5E6E390E5F6E36
:1003E200390E606E616AC26A060EC16EFD0E946EAF
:1003F20082920F0E956E936A070E816EC2DE820E96
:100402000C6EDD0E0D6E0D2EFED70C2EFCD70000ED
:100412000000010E6D6E14DE820E0C6EDD0E0D6E8E
:100422000D2EFED70C2EFCD7000000000C0E6D6EB8
:1004320007DE820E0C6EDD0E0D6E0D2EFED70C2E1B
:10044200FCD700000000450E626E000E636EECDE0B
:100452005B6A5C6A5BC062F05CC063F014DF0052EE
:10046200D8B46FD05B4A5C2A800E5C18006E800E96
:10047200005C02E1040E5B5C64E3596A550E626E35
:10048200000E636E5D0E646E000E656ED7DE000EAA
:10049200011802E1000E001818E1030E0B6E080E9F
:1004A2000C6E770E0D6E0D2EFED70C2EFCD70B2E7A
:1004B200FAD7010E6D6EC4DD360E626E000E636EEB
:1004C200B3DE3FDE3EDE3DDE24D0030E0B6E080EB1
:1004D2000C6E770E0D6E0D2EFED70C2EFCD70B2E4A
:1004E200FAD7010E6D6EACDD150E626E000E636EF4
:1004F2009BDE8282060E0B6E130E0C6EAD0E0D6E1F
:100502000D2EFED70C2EFCD70B2EFAD700000000C2
:100512008292060E0B6E130E0C6EAD0E0D6E0D2E2C
:10052200FED70C2EFCD70B2EFAD700000000010ECE
:100532006D6E86DD260E626E000E636E75DE5B6A80
:100542005C6A820E0C6EDD0E0D6E0D2EFED70C2E29
:0A055200FCD7000000007ED7FFD7A1
:10059C0010EE15F0400E006E010E016E5C0EF66E44
:0E05AC00050EF76E000EF86E0DEC01F0120059
:10055C0053656E686120696E636F72726574612198
:01056C00008E
:10056D0044696769746520612073656E68613A003E
:0F057D0053656E686120636F727265746121004F
:10058C0044696769746520612073656E68613A001F
:020000040030CA
:0D000100220F0EFF0181FF0FC00FE00F4026
:00000001FF
