:1000000071EF02F00000000000EF00F000000000BF
:0A0010000000000000000000F3D71C
:06001C00000000001200CC
:10002200086A096A100E0C6E01340836093604504B
:10003200085E0550D8A0053C095ED8B007D0045030
:1000420008260550D8B0053C0926D890003601365E
:060052000C2EEAD712009B
:100058000F0E0C6E470E0D6E0D2EFED70C2EFCD714
:0600680000000000120080
:0A006E00210E0D6E0D2EFED71200BC
:10007800506A050E505C0AE250504E24E16E000EA4
:100088004F20E26E200EE66E502AF3D750504E24D1
:10009800E16E000E4F20E26EE66A500650504E2484
:1000A800516E000E4F20526E0A0E046E000E056E41
:1000B8004CC000F04DC001F0B0DF08C000F009C02E
:1000C80001F0300E002651C0E1FF52C0E2FF00C02F
:1000D800E6FF0A0E046E000E056E4CC000F04DC01F
:1000E80001F09BDF00C04CF001C04DF0000E01187C
:1000F80002E1000E001801E102D05006CFD712002D
:100108004CBE02D0839E01D0838E4CBC02D0839C0F
:1001180001D0838C4CBA02D0839A01D0838A4CB820
:1001280002D0839801D0838815B002D0848401D08E
:10013800849484826FDF84924CB602D0839E01D06F
:10014800838E4CB402D0839C01D0838C4CB202D0F5
:10015800839A01D0838A4CB002D0839801D08388D7
:1001680015B002D0848401D08494848253DF8492B1
:0C01780015A002D06DDF01D076DF120070
:0C018400159042C04CF0BEDF1580120048
:10019000486A496A42C04AF043C04BF0800E431897
:1001A000006E800E005C02E1000E425C0BE2010E6C
:1001B000486E000E496E425000084A6E43C04BF034
:1001C000000E4B564AC04CF04BC04DF044C04EF0B0
:1001D00045C04FF051DF060E466E000E476E000E12
:1001E000006E4750005C02E14650000819E246509C
:1001F0004424E16E47504520E26E010E465C006EDD
:10020000000E4758016E00504424E96E015045200D
:10021000EA6EEECFE6FF010E465E000E475ADFD7CC
:1002200044C0E1FF45C0E2FF200EE66E4850491091
:100230001AE0466A476A46504424E96E4750452012
:10024000EA6EEE50200A03E1464A472AF4D7010E2F
:10025000465E000E475A46504424E16E4750452002
:08026000E26E2D0EE66E1200A5
:10026800969296949598959A959C959E8492849446
:10027800839E839C839A8398EBDEEADEE9DE838A99
:1002880083888482C7DE8492E3DE8482C3DE84921C
:10029800DFDE8482BFDE8492DBDE83988482BADE6E
:1002A8008492D6DE8482B6DE8492839A838E848298
:1002B800B1DE8492CDDE839E83888482ABDE849215
:1002C80083988482A7DE8492C3DE8482A3DE84922C
:1002D800838884829FDE8492BBDE839884829ADE40
:1002E8008492838E838C838A8388848293DE84922B
:0602F800AFDE15801200CC
:1002FE0025C042F026C043F02D0E446E000E456E12
:10030E0040DF27C042F028C043F0340E446E000E8A
:10031E00456E37DF29C042F02AC043F03B0E446ED3
:10032E00000E456E2EDF800E2618006E800E005CCD
:10033E0002E10A0E255C0FE22BC0E1FF2CC0E2FFAA
:10034E00300EE66E010E2B24E16E000E2C20E26EB6
:10035E0032C0E6FF0ED02BC0E1FF2CC0E2FF31C051
:10036E00E6FF010E2B24E16E000E2C20E26E32C051
:10037E00E6FF020E2B24E16E000E2C20E26E3A0EEA
:10038E00E66E800E2818006E800E005C02E10A0EEA
:10039E00275C11E2030E2B24E16E000E2C20E26E80
:1003AE00300EE66E040E2B24E16E000E2C20E26E53
:1003BE0039C0E6FF10D0030E2B24E16E000E2C2068
:1003CE00E26E38C0E6FF040E2B24E16E000E2C20E8
:1003DE00E26E39C0E6FF050E2B24E16E000E2C20D6
:1003EE00E26E3A0EE66E800E2A18006E800E005CEB
:1003FE0002E10A0E295C11E2060E2B24E16E000EBC
:10040E002C20E26E300EE66E070E2B24E16E000EEF
:10041E002C20E26E40C0E6FF10D0060E2B24E16EBB
:10042E00000E2C20E26E3FC0E6FF070E2B24E16E7D
:10043E00000E2C20E26E40C0E6FF080E2B24E16E6B
:0A044E00000E2C20E26EE66A120098
:100458000900F5CFE6FF0006FBE10106F9E112000D
:100468000FD0800E256E19D0C00E256E16D0940EB2
:10047800256E13D0D40E256E10D0800E256E0DD0AB
:100488002550010AEEE02550020AEEE02550030A45
:10049800EEE02550040AEEE0F0D72604006E255061
:1004A800002600C025F000C04CF02ADE1590296A0D
:1004B80029502724E96E000E2820EA6EEE520BE040
:1004C80029502724E96E000E2820EA6EEECF42F06C
:0A04D80055DE292AEDD71580120029
:1004E2000F0E1F6E000E206E050E216E000E226E84
:1004F200320E236E000E246EC26A0F0EC16E070EFC
:10050200936EB1DE020E0B6E040E0C6EBA0E0D6E01
:100512000D2EFED70C2EFCD70B2EFAD70000010EA3
:100522004C6EF1DD020E0B6E040E0C6EBA0E0D6EE9
:100532000D2EFED70C2EFCD70B2EFAD700000C0E78
:100542004C6EE1DD020E0B6E040E0C6EBA0E0D6ED9
:100552000D2EFED70C2EFCD70B2EFAD7000081B041
:1005620055D0030E0B6E080E0C6E770E0D6E0D2E0F
:10057200FED70C2EFCD70B2EFAD7800E2418006E55
:10058200800E005C02E13B0E235C03E2234A242A34
:1005920022D0236A246A800E2218006E800E005C2C
:1005A20002E13B0E215C03E2214A222A14D0216A95
:1005B200226A800E2018006E800E005C02E1170E87
:1005C2001F5C03E21F4A202A06D01F6A206A216AA2
:1005D200226A236A246A1FC025F020C026F021C0A7
:1005E20027F022C028F023C029F024C02AF0160EDA
:1005F2002B6E000E2C6E82DE010E256E050E266E0F
:10060200160E276E000E286E2EDFA9D781B247D0B4
:10061200030E0B6E080E0C6E770E0D6E0D2EFED7AE
:100622000C2EFCD70B2EFAD7800E2218006E800EED
:10063200005C02E13B0E215C03E2214A222A14D033
:10064200216A226A800E2018006E800E005C02E190
:10065200170E1F5C03E21F4A202A06D01F6A206A77
:10066200216A226A236A246A1FC025F020C026F06C
:1006720021C027F022C028F023C029F024C02AF08C
:10068200160E2B6E000E2C6E39DE010E256E050E37
:10069200266E160E276E000E286EE5DEB7D781B4E1
:1006A20035D0030E0B6E080E0C6E770E0D6E0D2EEE
:1006B200FED70C2EFCD70B2EFAD7800E2018006E18
:1006C200800E005C02E1170E1F5C03E21F4A202A23
:1006D20002D01F6A206A1FC025F020C026F021C068
:1006E20027F022C028F023C029F024C02AF0160ED9
:1006F2002B6E000E2C6E02DE010E256E050E266E8E
:10070200160E276E000E286EAEDEC9D70B0E0B6ECC
:10071200260E0C6E5D0E0D6E0D2EFED70C2EFCD726
:100722000B2EFAD700000000800E2418006E800EF7
:10073200005C02E13B0E235C03E2234A242A22D01E
:10074200236A246A800E2218006E800E005C02E189
:100752003B0E215C03E2214A222A14D0216A226A3A
:10076200800E2018006E800E005C02E1170E1F5CE6
:1007720003E21F4A202A06D01F6A206A216A226ADF
:10078200236A246A1FC025F020C026F021C027F06A
:1007920022C028F023C029F024C02AF0160E2B6EA6
:1007A200000E2C6EABDD010E256E050E266E160EAA
:0C07B200276E000E286E57DED2D6FFD74F
:020000040030CA
:0D000100220F0EFF0181FF0FC00FE00F4026
:00000001FF
