:10000000A1EF01F00000000000EF00F00000000090
:0A0010000000000000000000F3D71C
:10001C000134083609360450085E0550D8A0053C5A
:10002C00095E003601360F0E0C6E013408360936A7
:10003C00045000A006D0085E0550D8A0053C095E0F
:10004C0005D008260550D8B0053C092600360136E7
:10005C000C2EEBD700B006D0045008260550D8B0B3
:08006C00053C0926000012000A
:100074000450000A08E10550000A05E1FF0E006E75
:100084007F0E016E57D00D6A096A086A015000108C
:10009400D8B4000C015005180A6E0ABE0D1E0B6A76
:1000A40005AE05D0041E051E042AD8B4052A01AEE7
:1000B40005D0001E011E002AD8B4012A01500510E3
:1000C4000A6E0ABE10D0A8DF0BB020D00DAE000C13
:1000D400001E011E002AD8B4012A081E091E082A7F
:1000E400D8B4092A000C05AE0DD001BE07D00150CA
:1000F400096E0050086E016A006AE8D7016A006A56
:10010400002A000C011E001E0B2ADDD7082AD8B4D1
:10011400092A0450085CD8A4D9D70550095CD8A48E
:10012400D5D7096A086A002AD8B4012A01AECED705
:060134000000FF0C1200A8
:10013A00086A096A100E0C6E013408360936045032
:10014A00085E0550D8A0053C095ED8B007D0045017
:10015A0008260550D8B0053C0926D8900036013645
:06016A000C2EEAD7120082
:100170001ED03F0E006E39D0060E006E36D05B0EDC
:10018000006E33D04F0E006E30D0660E006E2DD054
:100190006D0E006E2AD07D0E006E27D0070E006E09
:1001A00024D07F0E006E21D06F0E006E1ED0235023
:1001B000000ADFE02350010ADFE02350020ADFE0FB
:1001C0002350030ADFE02350040ADFE02350050A2E
:1001D000DFE02350060ADFE02350070ADFE0235068
:0C01E000080ADFE02350090ADFE01200EB
:1001EC00E80E046E030E056E1FC000F020C001F077
:1001FC009EDF00C019F001C01AF0E80E046E030E69
:10020C00056E1FC000F020C001F091DF08C000F0A7
:10021C0009C001F000C021F001C022F0640E046E90
:10022C00000E056E21C000F022C001F01DDF00C0E1
:10023C001BF001C01CF0640E046E000E056E21C094
:10024C0000F022C001F010DF08C000F009C001F07E
:10025C0000C021F001C022F00A0E046E000E056EE3
:10026C0021C000F022C001F0FFDE00C015F001C07B
:10027C0016F00A0E046E000E056E21C000F022C0AE
:10028C0001F0F2DE08C000F009C001F000C017F068
:06029C0001C018F0120081
:1002A200196A1A6A1B6A1C6A156A166A1FC017F055
:0602B20020C018F012004C
:1002B8001FC023F059DF00C083FF80840D0E0C6E31
:1002C800FB0E0D6E0D2EFED70C2EFCD70000000085
:1002D800809420C023F048DF00C083FF80860D0E85
:1002E8000C6EFB0E0D6E0D2EFED70C2EFCD70000EB
:1002F8000000809621C023F037DF00C083FF80888C
:100308000D0E0C6EFB0E0D6E0D2EFED70C2EFCD7AF
:1003180000000000809822C023F026DF00C083FF81
:10032800808A0D0E0C6EFB0E0D6E0D2EFED70C2E58
:0A033800FCD700000000809A1200BC
:10034200130E1D6E000E1E6EC26A060EC16EF26A9A
:10035200926A806A956A836A030E1E5C02E1E80E65
:100362001D5C06E31DC01FF01EC020F03EDF05D05D
:100372001DC01FF01EC020F093DF19C01FF01BC06C
:1003820020F015C021F017C022F095DFE5D7FFD786
:020000040030CA
:0D000100220F0EFF0181FF0FC00FE00F4026
:00000001FF
