:100000004AEF02F00000000000EF00F000000000E6
:0A0010000000000000000000F3D71C
:10001C000134083609360450085E0550D8A0053C5A
:10002C00095E003601360F0E0C6E013408360936A7
:10003C00045000A006D0085E0550D8A0053C095E0F
:10004C0005D008260550D8B0053C092600360136E7
:10005C000C2EEBD700B006D0045008260550D8B0B3
:08006C00053C0926000012000A
:100074000450000A08E10550000A05E1FF0E006E75
:100084007F0E016E57D00D6A096A086A015000108C
:10009400D8B4000C015005180A6E0ABE0D1E0B6A76
:1000A40005AE05D0041E051E042AD8B4052A01AEE7
:1000B40005D0001E011E002AD8B4012A01500510E3
:1000C4000A6E0ABE10D0A8DF0BB020D00DAE000C13
:1000D400001E011E002AD8B4012A081E091E082A7F
:1000E400D8B4092A000C05AE0DD001BE07D00150CA
:1000F400096E0050086E016A006AE8D7016A006A56
:10010400002A000C011E001E0B2ADDD7082AD8B4D1
:10011400092A0450085CD8A4D9D70550095CD8A48E
:10012400D5D7096A086A002AD8B4012A01AECED705
:060134000000FF0C1200A8
:10013A00086A096A100E0C6E013408360936045032
:10014A00085E0550D8A0053C095ED8B007D0045017
:10015A0008260550D8B0053C0926D8900036013645
:06016A000C2EEAD7120082
:100170001ED03F0E006E39D0060E006E36D05B0EDC
:10018000006E33D04F0E006E30D0660E006E2DD054
:100190006D0E006E2AD07D0E006E27D0070E006E09
:1001A00024D07F0E006E21D06F0E006E1ED027501F
:1001B000000ADFE02750010ADFE02750020ADFE0F3
:1001C0002750030ADFE02750040ADFE02750050A22
:1001D000DFE02750060ADFE02750070ADFE027505C
:0C01E000080ADFE02750090ADFE01200E7
:1001EC00196A1A6A176A186A1B6A1C6A23C01DF0FE
:0601FC0024C01EF01200F9
:10020200196A1A6A640E046E000E056E23C000F0AD
:1002120024C001F091DF00C017F001C018F0640E95
:10022200046E000E056E23C000F024C001F084DFCE
:1002320008C000F009C001F000C025F001C026F09E
:100242000A0E046E000E056E25C000F026C001F0F5
:1002520010DF00C01BF001C01CF00A0E046E000E7D
:10026200056E25C000F026C001F003DF08C000F0D3
:0E02720009C001F000C01DF001C01EF0120016
:10028000E80E046E030E056E23C000F024C001F0DA
:1002900054DF00C019F001C01AF0E80E046E030E1E
:1002A000056E23C000F024C001F047DF08C000F055
:1002B00009C001F000C025F001C026F0640E046EF4
:1002C000000E056E25C000F026C001F0D3DE00C090
:1002D00017F001C018F0640E046E000E056E25C004
:1002E00000F026C001F0C6DE08C000F009C001F031
:1002F00000C025F001C026F00A0E046E000E056E47
:1003000025C000F026C001F0B5DE00C01BF001C022
:100310001CF00A0E046E000E056E25C000F026C00B
:1003200001F0A8DE08C000F009C001F000C01DF017
:0603300001C01EF01200E6
:10033600196A1A6A176A186A0A0E046E000E056EA2
:1003460023C000F024C001F0F5DE00C01BF001C0A0
:100356001CF00A0E046E000E056E23C000F024C0C9
:1003660001F0E8DE08C000F009C001F000C01DF091
:0603760001C01EF01200A0
:10037C0023C027F0F7DE00C083FF80840D0E0C6EC7
:10038C00FB0E0D6E0D2EFED70C2EFCD700000000C0
:10039C00809424C027F0E6DE00C083FF80860D0E1B
:1003AC000C6EFB0E0D6E0D2EFED70C2EFCD7000026
:1003BC000000809625C027F0D5DE00C083FF808822
:1003CC000D0E0C6EFB0E0D6E0D2EFED70C2EFCD7EB
:1003DC0000000000809826C027F0C4DE00C083FF18
:1003EC00808A0D0E0C6EFB0E0D6E0D2EFED70C2E94
:0A03FC00FCD700000000809A1200F8
:100406000900F5CFE6FF0006FBE10106F9E112005F
:10041600030E225C02E1E80E215C06E321C023F014
:1004260022C024F02ADF29D0000E225C02E1640EED
:10043600215C0CE3030E225C02E1E80E215C06E27D
:1004460021C023F022C024F0D9DE17D0000E225C92
:1004560002E10A0E215C0CE3000E225C02E1640E4E
:10046600215C06E221C023F022C024F061DF05D022
:1004760021C023F022C024F0B6DE19C023F017C035
:0E04860024F01BC025F01DC026F075DF12000B
:10049400156A166A1F6A206AC26A060EC16EF26A7B
:1004A400926A806A956A836A070E936EFD0E946E53
:1004B40082921FC021F020C022F0ABDF81B00CD0AB
:1004C4001F4A202A0D0E0C6EFB0E0D6E0D2EFED74C
:1004D4000C2EFCD70000000081B20ED0010E1F5E6E
:1004E400000E205A0D0E0C6EFB0E0D6E0D2EFED757
:1004F4000C2EFCD70000000081B43ED0000E006E2C
:100504002050005C02E11F50000818E2800E16180B
:10051400006E800E005C02E12D0E155C08E21FC027
:1005240021F020C022F075DF154A162AEFD7010EFC
:100534001F5E000E205A156A166AE0D7000E2018B6
:1005440002E1000E1F1818E11FC021F020C022F0A4
:1005540060DF8282800E1618006E800E005C02E15D
:10056400190E155C08E21FC021F020C022F051DFF3
:0C057400154A162AEFD782929CD7FFD7B9
:020000040030CA
:0D000100220F0EFF0181FF0FC00FE00F4026
:00000001FF
